:100000000C9446000C9488000C9466000C945200EA
:100010000C9488000C9488000C9488000C94880040
:100020000C9488000C9488000C9488000C94880030
:100030000C9488000C9488000C9488000C94880020
:100040000C9488000C9488000C9488000C94880010
:100050000C9488000C9488000C9488000C94880000
:100060000C9488000C9488000C9488000C948800F0
:100070000C9488000C9488000C9488000C948800E0
:100080000C9488000C9488000C94880011241FBEE6
:10009000CFEFD0E1DEBFCDBF0E947A000C945000BC
:0400A000F894FFCF02
:1000A4001F920F920FB60F9211248F93AF9B03C030
:1000B40081E085BB03C085B3880F85BB8F910F900A
:0800C4000FBE0F901F9018956C
:1000CC001F920F920FB60F9211248F93AF9B03C008
:1000DC0081E085BB03C085B3880F85BB8F910F90E2
:0800EC000FBE0F901F90189544
:1000F4008FEF84BBEAE6F0E080818C63808389B76C
:0C010400866089BF789481E085BBFFCF46
:040110000C9400004B
:00000001FF
