:100000000C9446000C94C7000C94C7000C94C700D5
:100010000C94C7000C94C7000C94C7000C94C70044
:100020000C94C7000C94C7000C94C7000C94C70034
:100030000C94C7000C94C7000C94C7000C94C70024
:100040000C94C7000C94C7000C94C7000C94C70014
:100050000C94C7000C94C7000C94C7000C94C70004
:100060000C94C7000C94C7000C94C7000C94C700F4
:100070000C94C7000C94C7000C94C7000C94C700E4
:100080000C94C7000C94C7000C94C70011241FBE29
:10009000CFEFD0E1DEBFCDBFECE8F0E040E019C02B
:1000A000B791A79137912791079107FD0EC09791BE
:1000B0008791EF01F92FE82F0BBF07900D92A21740
:1000C000B307D9F7FE011BBE04C01D92A217B307E8
:1000D000E1F7EC38F40721F70E9472000C947000ED
:0400E000F894FFCFC2
:1000E4008FEF87BB0E94B60084E690E00E94A700D1
:1000F40080E00E94C30000E010E0C1E0D0E00AC04C
:10010400802F0E94C300229684E690E00E94A700FC
:100114000C0F1D1F0F3F110599F394F30FEF10E01F
:100124000AC0802F0E94C300229784E690E00E94B8
:10013400A7000C1B1D0B1123A4F780E00E94C30031
:0A01440084E690E00E94A700D3CFEC
:10014E0020E030E008C0EFECF7E03197F1F700C0A7
:0E015E0000002F5F3F4F28173907ACF30895BC
:10016C001BBC1ABC19BC18BC1092790010927800F8
:0A017C0089EA8FBD8BE08EBD089567
:0801860090E09BBD8ABD0895C5
:04018E000C940000CD
:00000001FF
