:100000000C9446000C9472000C9472000C947200D4
:100010000C9472000C9472000C9472000C94720098
:100020000C9472000C9472000C9472000C94720088
:100030000C9472000C9472000C9472000C94720078
:100040000C9472000C9472000C9472000C94720068
:100050000C9472000C9472000C9472000C94720058
:100060000C9472000C9472000C9472000C94720048
:100070000C9472000C9472000C9472000C94720038
:100080000C9472000C9472000C94720011241FBE28
:10009000CFEFD0E1DEBFCDBF0E9452000C945000E4
:0400A000F894FFCF02
:1000A4008FEF81BBC1E0D0E002C0C1E0D0E0C2BBB1
:1000B40082E390E00E946300CC0FDD1F2097A9F338
:0200C400F6CF75
:1000C60020E030E008C0EFECF7E03197F1F700C030
:0E00D60000002F5F3F4F28173907ACF3089545
:0400E4000C94000078
:00000001FF
