:100000000C9449000C9469010C9469010C946901E9
:100010000C9469010C9469010C9469010C946901B8
:100020000C9469010C9469010C9469010C946901A8
:100030000C9469010C9469010C9469010C94690198
:100040000C9469010C9469010C9469010C94690188
:100050000C9469010C9469010C9469010C94690178
:100060000C9469010C9469010C9469010C94690168
:100070000C9469010C9469010C9469010C94690158
:100080000C9469010C9469010C9469010100010848
:10009000800011241FBECFEFD0E1DEBFCDBFECE862
:1000A000F0E040E019C0B791A791379127910791EF
:1000B00007FD0EC097918791EF01F92FE82F0BBF35
:1000C00007900D92A217B307D9F7FE011BBE04C01B
:1000D0001D92A217B307E1F7E139F40721F70E9457
:0A00E00075000C947300F894FFCF34
:1000EA000E94200186E886B9109261008FEF8ABBD0
:1000FA0087BB88EE93E00E944D0180ED97E09093D4
:10010A000301809302019093050180930401909367
:10011A0001018093000190930701809306019BBD22
:10012A008ABD809104019091050190938700809384
:10013A00860080E090E00E945C018BBB81E090E049
:10014A000E945C0188BB0E94DF0080E197E20E9466
:10015A004D018091000190910101803D27E09207B5
:10016A0039F488EE93E0909303018093020109C069
:10017A00883E934031F480ED97E090930301809399
:10018A0002018091060190910701803D27E09207C4
:10019A0039F488EE93E09093050180930401C9CF66
:1001AA00883E934031F680ED97E090930501809365
:0401BA000401BFCFAE
:1001BE008091000190910101209102013091030183
:1001CE008217930734F401969093010180930001F6
:1001DE0008C0281739072CF40197909301018093DA
:1001EE000001809106019091070120910401309148
:1001FE0005018217930734F40196909307018093BB
:10020E00060108C0281739072CF4019790930701AF
:10021E008093060180910001909101019BBD8ABDE2
:10022E00809106019091070190938700809386003C
:02023E00089521
:1002400088EE93E090930101809300019093070161
:10025000809306018FEF81BB87BB82B980E29EE469
:1002600097BD86BD909381008093800080910001AE
:10027000909101019BBD8ABD809100019091010187
:10028000909387008093860092E89FBD8AE18EBD9F
:0A02900090938B0080938A0008957C
:10029A0020E030E008C0EFECF7E03197F1F700C05A
:0E02AA0000002F5F3F4F28173907ACF308956F
:1002B8000E94660186B1806486B93699FECF85B101
:0402C80090E0089525
:0602CC00806687B9089569
:0402D2000C94000088
:00000001FF
