:100000000C9449000C94F1000C94F1000C94F10054
:100010000C94F1000C94F1000C94F1000C94F1009C
:100020000C94F1000C94F1000C94F1000C94F1008C
:100030000C94F1000C94F1000C94F1000C94F1007C
:100040000C94F1000C94F1000C94F1000C94F1006C
:100050000C94F1000C94F1000C94F1000C94F1005C
:100060000C94F1000C94F1000C94F1000C94F1004C
:100070000C94F1000C94F1000C94F1000C94F1003C
:100080000C94F1000C94F1000C94F10001000104B7
:10009000800011241FBECFEFD0E1DEBFCDBFECE862
:1000A000F0E040E019C0B791A791379127910791EF
:1000B00007FD0EC097918791EF01F92FE82F0BBF35
:1000C00007900D92A217B307D9F7FE011BBE04C01B
:1000D0001D92A217B307E1F7E139F40721F70E9457
:0A00E00075000C947300F894FFCF34
:1000EA000E94AB0086E886B9109261008FEF8ABB46
:1000FA0084BB80E090E00E94E40090930101809329
:10010A00000181E090E00E94E40090930301809353
:10011A000201809100018BBB8091020185BB809115
:10012A000001909101010E94D6009BBD8ABD809179
:10013A000201909103010E94D60090938700809358
:0C014A00860084E690E00E94C700D3CF3E
:100156008FEF87BB82B98FEF9FEF97BD86BD9093D8
:1001660081008093800088EE93E09BBD8ABD9093CA
:1001760087008093860092E89FBD8AE18EBD9093AA
:080186008B0080938A000895AC
:10018E0020E030E008C0EFECF7E03197F1F700C067
:0E019E0000002F5F3F4F28173907ACF308957C
:1001AC009C01220F331F880F991F880F991F880FEE
:0C01BC00991F820F931F88519C4F0895DB
:1001C8000E94EE0086B1806486B93699FECF85B16B
:0401D80090E0089516
:0601DC00806687B908955A
:0401E2000C94000079
:00000001FF
