:100000000C9446000C943C010C943C010C943C0173
:100010000C943C010C943C010C943C010C943C016C
:100020000C943C010C943C010C943C010C943C015C
:100030000C943C010C943C010C943C010C943C014C
:100040000C943C010C943C010C943C010C943C013C
:100050000C943C010C943C010C943C010C943C012C
:100060000C943C010C943C010C943C010C943C011C
:100070000C943C010C943C010C943C010C943C010C
:100080000C943C010C943C010C943C0111241FBEC7
:10009000CFEFD0E1DEBFCDBF0E94A8000C9450008E
:0400A000F894FFCF02
:1000A40080E00E94160189E00E9438018FEF0E94CF
:1000B400380180E00E942D0180E00E9416018AE050
:1000C4000E94380184E00E94380180E00E942D01E2
:1000D40080E00E9416018BE00E94380183E00E94B8
:1000E400380180E00E942D0180E00E9416018CE01E
:1000F4000E94380181E00E94380180E00E942D01B5
:0201040008955C
:10010600EF92FF920F931F93CF93DF93082F192F30
:100116000E9408017C01C1E0D0E00DC0802F912F24
:100126006AE070E00E94BE00062F172F682F8C2F02
:100136000E94E6002196EC16FD0684F7DF91CF912A
:0A0146001F910F91FF90EF900895B4
:1001500081E087BB0E9422010E945200C1E0D0E0F2
:1001600008C0CE010E94830084E190E00E94F90063
:0C0170002196C83584E0D807A4F3F0CF36
:10017C0097FB072E16F4009407D077FD09D00E9448
:10018C00D20007FC05D03EF4909581959F4F0895C1
:08019C00709561957F4F0895F5
:1001A400AA1BBB1B51E107C0AA1FBB1FA617B70799
:1001B40010F0A61BB70B881F991F5A95A9F78095B5
:0801C4009095BC01CD010895E6
:1001CC00CF93DF93D82FC62F80E00E9416018D2F7E
:1001DC000E9438018C2F0E94380180E00E942D0172
:0601EC00DF91CF910895A0
:1001F20020E030E008C0EFECF7E03197F1F700C003
:0E02020000002F5F3F4F28173907ACF3089517
:1002100020E030E007C02F5F3F4F6AE070E00E94AF
:0C022000BE00CB010097B9F7C90108959A
:10022C0098B321E030E002C0220F331F8A95E2F729
:08023C002095292328BB089539
:100244008FEF87BB87B3877F87BB88B3816088BB09
:0602540082E58DB908955A
:10025A0098B321E030E002C0220F331F8A95E2F7FB
:06026A00292B28BB0895BA
:080270008FB9779BFECF0895C2
:040278000C940000E2
:00000001FF
