:100000000C9446000C94F4000C94F4000C94F4004E
:100010000C94F4000C94F4000C94F4000C94F40090
:100020000C94F4000C94F4000C94F4000C94F40080
:100030000C94F4000C94F4000C94F4000C94F40070
:100040000C94F4000C94F4000C94F4000C94F40060
:100050000C94F4000C94F4000C94F4000C94F40050
:100060000C94F4000C94F4000C94F4000C94F40040
:100070000C94F4000C94F4000C94F4000C94F40030
:100080000C94F4000C94F4000C94F40011241FBEA2
:10009000CFEFD0E1DEBFCDBF0E9457000C945000DF
:0400A000F894FFCF02
:0900A4004C4344204920616D0029
:1000AE000E9480002FE78AE196E021508040904028
:1000BE00E1F700C0000082E00E94C9002FE78AE14C
:1000CE0096E0215080409040E1F700C0000064EAC5
:1000DE0070E080E00E949F0082B3805882BB2FE7C1
:1000EE008AE196E0215080409040E1F700C0000088
:0200FE00F3CF3E
:10010000CF938FEF84BB15BAC0E2C5BB0E94B60087
:10011000C5BB0E94B60080E885BB0E94B60015BA38
:100120000E94B60080EF85BB0E94B60015BA0E94FF
:0E013000B60080E685BB0E94B600CF91089510
:10013E00CF92DF92EF926B01E82E07C0862F0E94BE
:10014E00DB008FEFC81AD80AE80AF6015E2D0E946E
:0E015E00ED006111F3CFEF90DF90CF90089588
:10016C0085B3886085BB8FEC97E00197F1F700C0F1
:10017C00000085B3877F85BB8FEC97E00197F1F783
:06018C0000C00000089510
:10019200CF93C82F85BB85B38B7F85BB0E94B600EA
:1001A200C295C07FC5BB85B38B7F85BB0E94B6005D
:0401B200CF9108954C
:1001B600CF93C82F85BB85B3846085BB0E94B600EC
:1001C600C295C07FC5BB85B3846085BB0E94B6005F
:0401D600CF91089528
:0E01DA0057FD03C05BBF6791089560810895D3
:0401E8000C94000073
:00000001FF
