:100000000C9446000C940E010C940E010C940E01FD
:100010000C940E010C940E010C940E010C940E0124
:100020000C940E010C940E010C940E010C940E0114
:100030000C940E010C940E010C940E010C940E0104
:100040000C940E010C940E010C940E010C940E01F4
:100050000C940E010C940E010C940E010C940E01E4
:100060000C940E010C940E010C940E010C940E01D4
:100070000C940E010C940E010C940E010C940E01C4
:100080000C940E010C940E010C940E0111241FBE51
:10009000CFEFD0E1DEBFCDBF0E9457000C945000DF
:0400A000F894FFCF02
:0900A4004C4344204920616D0029
:1000AE000E94F8002FE78AE196E0215080409040B0
:1000BE00E1F700C000000E948B002FE78AE196E076
:1000CE00215080409040E1F700C0000082E00E9485
:1000DE00D4002FE78AE196E0215080409040E1F76E
:1000EE0000C0000064EA70E080E00E94AA0082B3C3
:1000FE00805882BB2FE78AE196E0215080409040E5
:08010E00E1F700C00000F3CF8F
:10011600CF938FEF84BB15BAC0E2C5BB0E94C10066
:10012600C5BB0E94C10080E885BB0E94C10015BA0C
:100136000E94C10080EF85BB0E94C10015BA0E94D3
:0E014600C10080E685BB0E94C100CF910895E4
:10015400CF92DF92EF926B01E82E07C0862F0E94A8
:10016400E6008FEFC81AD80AE80AF6015E2D0E944D
:0E01740007016111F3CFEF90DF90CF90089557
:1001820085B3886085BB8FEC97E00197F1F700C0DB
:10019200000085B3877F85BB8FEC97E00197F1F76D
:0601A20000C000000895FA
:1001A800CF93C82F85BB85B38B7F85BB0E94C100C9
:1001B800C295C07FC5BB85B38B7F85BB0E94C1003C
:0401C800CF91089536
:1001CC00CF93C82F85BB85B3846085BB0E94C100CB
:1001DC00C295C07FC5BB85B3846085BB0E94C1003E
:0401EC00CF91089512
:1001F00015BA0E94C10081E085BB0E94C10015BAFA
:0E0200000E94C10082E085BB0E94C1000895EB
:0E020E0057FD03C05BBF67910895608108959E
:04021C000C9400003E
:00000001FF
