:100000000C9446000C941C010C941C010C941C01D3
:100010000C941C010C941C010C941C010C941C01EC
:100020000C941C010C941C010C941C010C941C01DC
:100030000C941C010C941C010C941C010C941C01CC
:100040000C941C010C941C010C941C010C941C01BC
:100050000C941C010C941C010C941C010C941C01AC
:100060000C941C010C941C010C941C010C941C019C
:100070000C941C010C941C010C941C010C941C018C
:100080000C941C010C941C010C941C0111241FBE27
:10009000CFEFD0E1DEBFCDBF0E9452000C945000E4
:0400A000F894FFCF02
:1000A400CF9381E087BB0E9402010E94B600C1E0A9
:1000B4000DC080E00E94F6008C2F0E94180180E0A1
:1000C4000E94180180E00E940D01CF5FC53088F3C3
:1000D40088EE93E00E94E70080E00E94F60081E051
:1000E4000E94180181E00E94180180E00E940D0125
:1000F40088EE93E00E94E70080E00E94F60082E030
:100104000E94180182E00E94180180E00E940D0103
:1001140088EE93E00E94E70080E00E94F60083E00E
:100124000E94180183E00E94180180E00E940D01E2
:1001340088EE93E00E94E70080E00E94F60084E0ED
:100144000E94180184E00E94180180E00E940D01C1
:1001540088EE93E00E94E70088EE93E00E94E700B7
:0801640081E090E0CF910895C5
:10016C0080E00E94F60089E00E9418018FEF0E9447
:10017C00180180E00E940D0180E00E94F6008AE0E8
:10018C000E94180184E00E94180180E00E940D0179
:10019C0080E00E94F6008BE00E94180181E00E9432
:1001AC00180180E00E940D0180E00E94F6008CE0B6
:1001BC000E94180181E00E94180180E00E940D014C
:0201CC00089594
:1001CE0020E030E008C0EFECF7E03197F1F700C027
:0E01DE0000002F5F3F4F28173907ACF308953C
:1001EC0098B321E030E002C0220F331F8A95E2F76A
:0801FC002095292328BB08957A
:100204008FEF87BB87B3877F87BB88B3816088BB49
:0602140082E58DB908959A
:10021A0098B321E030E002C0220F331F8A95E2F73B
:06022A00292B28BB0895FA
:080230008FB9779BFECF089502
:040238000C94000022
:00000001FF
