:100000000C9446000C94A6000C94A6000C94A60038
:100010000C94A6000C94A6000C94A6000C94A600C8
:100020000C94A6000C94A6000C94A6000C94A600B8
:100030000C94A6000C94A6000C94A6000C94A600A8
:100040000C94A6000C94A6000C94A6000C94A60098
:100050000C94A6000C94A6000C94A6000C94A60088
:100060000C94A6000C94A6000C94A6000C94A60078
:100070000C94A6000C94A6000C94A6000C94A60068
:100080000C94A6000C94A6000C94A60011241FBE8C
:10009000CFEFD0E1DEBFCDBF0E9452000C945000E4
:0400A000F894FFCF02
:1000A4008FEF81BB14BAC1E0D0E000E010E083B36D
:1000B400813061F40115110541F5C130D10591F08C
:1000C400C430D105A1F001E010E01FC001301105DA
:1000D400E1F4C130D10581F0C430D10591F000E0E4
:1000E40010E013C0C4E0D0E001E010E00EC0C1E0B5
:1000F400D0E001E010E009C0C4E0D0E000E010E08E
:1001040004C0C1E0D0E000E010E080E882BBC13070
:10011400D10529F484EF91E00E94970004C08DE793
:0A01240090E00E94970012BAC2CFCB
:10012E0020E030E008C0EFECF7E03197F1F700C0C7
:0E013E0000002F5F3F4F28173907ACF30895DC
:04014C000C9400000F
:00000001FF
