:100000000C9446000C948E000C948E000C948E0080
:100010000C948E000C948E000C948E000C948E0028
:100020000C948E000C948E000C948E000C948E0018
:100030000C948E000C948E000C948E000C948E0008
:100040000C948E000C948E000C948E000C948E00F8
:100050000C948E000C948E000C948E000C948E00E8
:100060000C948E000C948E000C948E000C948E00D8
:100070000C948E000C948E000C948E000C948E00C8
:100080000C948E000C948E000C948E0011241FBED4
:10009000CFEFD0E1DEBFCDBF0E9452000C945000E4
:0400A000F894FFCF02
:1000A4008FEF81BB14BA01E010E080E090E0C3B3AD
:1000B400D0E0C130D10551F4892B41F40130110550
:1000C40019F404E010E002C001E010E080E882BB13
:1000D400C8010E94820012BAC8010E948200CE01A7
:0200E400E6CF65
:1000E60020E030E008C0EFECF7E03197F1F700C010
:0E00F60000002F5F3F4F28173907ACF3089525
:10010400019729F484EF91E00E94730008958DE72C
:0801140090E00E9473000895C1
:04011C000C9400003F
:00000001FF
