:100000000C9446000C948A000C948A000C948A008C
:100010000C948A000C948A000C948A000C948A0038
:100020000C948A000C948A000C948A000C948A0028
:100030000C948A000C948A000C948A000C948A0018
:100040000C948A000C948A000C948A000C948A0008
:100050000C948A000C948A000C948A000C948A00F8
:100060000C948A000C948A000C948A000C948A00E8
:100070000C948A000C948A000C948A000C948A00D8
:100080000C948A000C948A000C948A0011241FBEE0
:10009000CFEFD0E1DEBFCDBF0E945B000C945000DB
:0400A000F894FFCF02
:1000A4003F065B4F666D7D077F6F777C395E7971A4
:0100B400F952
:1000B6008FEF81BB14BA20E030E0C0E0D0E083B31C
:1000C600813039F42115310521F4C031D10509F00B
:1000D600219683B3823029F4232B19F4209709F053
:1000E600219723B330E0CE010D2E000CAA0B8C55C0
:1000F6009F4FAF4FFC015A2F0E94830062BBDFCF98
:0E01060057FD03C05BBF6791089560810895A7
:040114000C94000047
:00000001FF
