:100000000C9446000C9488000C9488000C94880092
:100010000C9488000C9488000C9488000C94880040
:100020000C9488000C9488000C9488000C94880030
:100030000C9488000C9488000C9488000C94880020
:100040000C9488000C9488000C9488000C94880010
:100050000C9488000C9488000C9488000C94880000
:100060000C9488000C9488000C9488000C948800F0
:100070000C9488000C9488000C9488000C948800E0
:100080000C9488000C9488000C94880011241FBEE6
:10009000CFEFD0E1DEBFCDBF0E9456000C945000E0
:0400A000F894FFCF02
:0800A400402001024010080495
:1000AC008FEF81BBC0E0D0E0CE010D2E000CAA0B6F
:1000BC008C559F4FAF4FFC015A2F0E94810062BBA1
:1000CC00C730D10511F0219602C0C0E0D0E088EC19
:0800DC0090E00E947200E8CFE1
:1000E40020E030E008C0EFECF7E03197F1F700C012
:0E00F40000002F5F3F4F28173907ACF3089527
:0E01020057FD03C05BBF6791089560810895AB
:040110000C9400004B
:00000001FF
