:100000000C9446000C94D7000C94D7000C94D700A5
:100010000C94D7000C94D7000C94D7000C94D70004
:100020000C94D7000C94D7000C94D7000C94D700F4
:100030000C94D7000C94D7000C94D7000C94D700E4
:100040000C94D7000C94D7000C94D7000C94D700D4
:100050000C94D7000C94D7000C94D7000C94D700C4
:100060000C94D7000C94D7000C94D7000C94D700B4
:100070000C94D7000C94D7000C94D7000C94D700A4
:100080000C94D7000C94D7000C94D70011241FBEF9
:10009000CFEFD0E1DEBFCDBF0E9479000C945000BD
:0400A000F894FFCF02
:1000A4005965646920796F7520616D206E6F7400E5
:1000B400CF938FEF84BB15BAC0E2C5BB0E94AB00DF
:1000C400C5BB0E94AB0080E885BB0E94AB0015BA9B
:1000D4000E94AB0080EF85BB0E94AB0015BA0E9462
:0E00E400AB0080E685BB0E94AB00CF91089573
:1000F2008FEF81BB0E945A0064EA70E080E00E94A8
:10010200940064EA70E080E00E94940082B3805818
:1001120082BB2FE78AE196E0215080409040E1F7D0
:0601220000C00000F3CF55
:10012800CF92DF92EF926B01E82E07C0862F0E94D4
:10013800BE008FEFC81AD80AE80AF6015E2D0E94A1
:0E014800D0006111F3CFEF90DF90CF900895BB
:1001560085B3886085BB8FEC97E00197F1F700C007
:10016600000085B3877F85BB8FEC97E00197F1F799
:0601760000C00000089526
:10017C00CF93C82F85BB85B3846085BB0E94AB0031
:10018C00C295C07FC5BB85B3846085BB0E94AB00A4
:04019C00CF91089562
:0E01A00057FD03C05BBF67910895608108950D
:0401AE000C940000AD
:00000001FF
