:100000000C944A000C94A4000C94A4000C94A4003A
:100010000C94A4000C94A4000C94A4000C94A400D0
:100020000C94A4000C94A4000C94A4000C94A400C0
:100030000C94A4000C94A4000C94A4000C94A400B0
:100040000C94A4000C94A4000C94A4000C94A400A0
:100050000C94A4000C94A4000C94A4000C94A40090
:100060000C94A4000C94A4000C94A4000C94A40080
:100070000C94A4000C94A4000C94A4000C94A40070
:100080000C94A4000C94A4000C94A4000100014B57
:1000900000014C0011241FBECFEFD0E1DEBFCDBF69
:1000A000ECE8F0E040E019C0B791A79137912791B3
:1000B000079107FD0EC097918791EF01F92FE82F67
:1000C0000BBF07900D92A217B307D9F7FE011BBE15
:1000D00004C01D92A217B307E1F7E339F40721F733
:0C00E0000E9476000C947400F894FFCF8E
:1000EC008FEF81BBC0E0D0E00EC0FE01EE0FFF1F12
:1000FC00EC0FFD1FE050FF4F808182BB818192810C
:10010C000E9495002196FE01EE0FFF1FEC0FFD1FC4
:0E011C00E050FF4F81819281892B39F7E3CFAC
:10012A0020E030E008C0EFECF7E03197F1F700C0CB
:0E013A0000002F5F3F4F28173907ACF30895E0
:040148000C94000013
:10014C000064000164000264000464001064002078
:10015C006400406400806400006400AA32005532E0
:10016C0000AA3200553200AA320055320000640059
:10017C008164004264002464001864000FC800F01D
:0B018C00C8000FC800F0C80000000011
:00000001FF
