:100000000C9446000C946A000C946A000C946A00EC
:100010000C946A000C946A000C946A000C946A00B8
:100020000C946A000C946A000C946A000C946A00A8
:100030000C946A000C946A000C946A000C946A0098
:100040000C946A000C946A000C946A000C946A0088
:100050000C946A000C946A000C946A000C946A0078
:100060000C946A000C946A000C946A000C946A0068
:100070000C946A000C946A000C946A000C946A0058
:100080000C946A000C946A000C946A0011241FBE40
:10009000CFEFD0E1DEBFCDBF0E9461000C945000D5
:0400A000F894FFCF02
:1000A40020E030E008C0EFECF7E03197F1F700C052
:0E00B40000002F5F3F4F28173907ACF3089567
:1000C2008FEF81BB8EEF84BB8AEF90E00E945200DB
:0200D200FBCF62
:0400D4000C94000088
:00000001FF
